:100000000C942A000C9447000C9447000C94470071
:100010000C9447000C9447000C9447000C94470044
:100020000C9447000C9447000C9447000C94470034
:100030000C9447000C9447000C9447000C94470024
:100040000C9447000C9447000C9447000C94470014
:100050000C94470011241FBECFE5D8E0DEBFCDBF12
:1000600010E0A0E6B0E0E4E2FEE002C005900D92F0
:10007000A23CB107D9F720E0A2ECB0E001C01D928C
:10008000A63CB207E1F70E9450020C9410070C94B2
:100090000000FC01EF73FF27408126E096958795CD
:1000A0002A95E1F721E030E0082E01C0220F0A94E2
:1000B000EAF7209524232083908101C0660F8A955A
:1000C000EAF7692B6083089591B1987F981303C074
:1000D000892F8160089591B1987F981721F081B19F
:1000E000887F8260089582E00895CF92DF92EF9238
:1000F000FF920F931F93CF93DF93CDB7DEB7609737
:100100000FB6F894DEBF0FBECDBF90E1E0E6F0E0A1
:10011000DE01119601900D929A95E1F78E010F5F25
:100120001F4FF12CE12CC82ED12CB6010E2C02C091
:10013000759567950A94E2F76170F8018191919144
:100140008F010E944900FFEFEF1AFF0A88E0E816CE
:10015000F10459F760B362956F706095617082E346
:1001600091E00E944900E5EDEA95F1F7000060B3E7
:1001700062956F706095617082E391E00E94490022
:10018000F5EDFA95F1F7000060960FB6F894DEBF32
:100190000FBECDBFDF91CF911F910F91FF90EF90D8
:1001A000DF90CF900895CF93C82F60E082E791E071
:1001B0000E9449008AE18A95F1F700C08C2F0E94C5
:1001C00075008FE99EE10197F1F700C00000CF9123
:1001D0000895880F83B986B7806886BF86B7806820
:1001E00086BF86B7846086BF80E090E0DC0106B6FB
:1001F00007FC0DC0893E23E09207A105B10519F463
:1002000088E10C9464000196A11DB11DF0CF883ED9
:100210009340A105B105A1F786B78F7786BF81B15D
:10022000887F8460089581B1877081B986B78061C5
:1002300086BF86B7806886BF86B7806886BF86B768
:10024000846086BF80E090E0DC0106B607FC10C049
:10025000893E23E09207A105B10531F410B816BE1E
:1002600081B1887F816008950196A11DB11DEDCFF8
:10027000883E9340A105B10589F786B78F7786BF81
:1002800081B1887F8460089586B7806286BF86B713
:10029000806886BF86B7846086BF80E090E0DC011E
:1002A00006B607FC0DC0893E23E09207A105B10503
:1002B00019F488E00C9464000196A11DB11DF0CFE3
:1002C000883E9340A105B105A1F786B78F7D86BF13
:1002D00081B1887F8460089583B986B7806886BFBE
:1002E00086B7806886BF86B7846086BF80E090E06E
:1002F000DC0106B607FC0EC0893E23E09207A1058B
:10030000B10521F480E090E0DC0113C00196A11D4D
:10031000B11DEFCF883E9340A105B10599F786B78F
:100320008F7786BF81B1887F846008950196A11D73
:10033000B11D21B1287F283239F0883E23E0920791
:10034000A105B10599F7EECF883E9340A105B1050F
:1003500049F388E20C9464000F931F93CF93DF93CB
:10036000CDB7DEB708851A850E944401802F0E9410
:10037000E900812F0E946C01182F0E941301812F28
:100380008770886DDF91CF911F910F910895CF9263
:10039000DF92EF92FF921F93CF93DF93CDB7DEB73B
:1003A0001B85ED84FE840E944401812F0E94E90098
:1003B00010E0F70181916F010E946C018770182B8A
:1003C000F701808176018111F4CF0E941301812F02
:1003D000886DDF91CF911F91FF90EF90DF90CF90CC
:1003E0000895DF92EF92FF920F931F93CF93DF93C5
:1003F000CDB7DEB7E0970FB6F894DEBF0FBECDBF26
:100400009E01265C3F4FF901419151919F0160E3AC
:1004100070E0CE0101960E942F048E010F5F1F4FE6
:100420007E01F2E3EF0EF11CF801D1908F01DD2087
:1004300019F0EE15FF0571F4E0960FB6F894DEBFE3
:100440000FBECDBFDF91CF911F910F91FF90EF9025
:10045000DF9008958091C5008F5F883178F4809394
:10046000C50061E082E791E00E94490085ED8A9530
:10047000F1F700008D2D0E947500D6CF1092C500B7
:100480008091C4008F5F81708093C40090E026E06B
:10049000880F991F2A95E1F780680E94D300E1CF69
:1004A000CF93DF93CDB7DEB765970FB6F894DEBF75
:1004B0000FBECDBF88E0E0E7F0E08E010F5F1F4F79
:1004C000D80101900D928A95E1F7F80180E0219121
:1004D00031912430310519F08F5F8430C1F791B12B
:1004E0009C7F91B991B1892B81B98CE080B981B1A0
:1004F000877081B982E082B986B78E7F86BF80E03F
:100500000E9464001092C5001092C40080E1E0E6F1
:10051000F0E0D80101900D928A95E1F78C988C9AC1
:100520008D988D9AD8013E0121E1620E711C21E067
:1005300030E08D919D91FC01EF73FF27629146E0C1
:10054000969587954A95E1F7A90101C0440F8A95D0
:10055000EAF7942F9095962390838081842B808353
:100560006A167B0631F788E30E94D3008CE00E9474
:10057000D30086E00E94D3008FEC97E00197F1F75B
:1005800000C000008EE00E94D30083E0482E92E07D
:10059000592E21EAE22E20E0F22E3FE8C32E30E071
:1005A000D32E41EBA42E40E0B42E52E8852E50E02D
:1005B000952E61E2362E70E2272E91E19093C300D2
:1005C00085E0E8E7F0E0DE01519601900D928A9512
:1005D000E1F77F926F921F924F925F920E94C70144
:1005E0008093C2008091C2000F900F900F900F90E7
:1005F0000F9087702091C300823009F4F9C08430D5
:1006000009F4EBC0813009F0FEC08091C20090E097
:10061000887F9F938F931F922F939F928F920E9418
:10062000F1010F900F900F900F900F900F902FEF00
:1006300033EC89E0215030408040E1F700C00000F9
:1006400085E0EDE7F0E0D80101900D928A95E1F7A1
:100650001F930F931F924F925F920E94C7019FEFCB
:1006600023EC39E0915020403040E1F700C0000019
:100670001F9281E08F931F924F925F920E94AC0174
:100680009FEF21EE34E0915020403040E1F700C070
:1006900000001F9280E18F931F924F925F920E9401
:1006A000AC019FEF21EE34E0915020403040E1F763
:1006B00000C000001F925F921F924F925F920E94B3
:1006C000AC018FEF91EE24E0815090402040E1F7A3
:1006D00000C000003092C3001F922F921F924F92D1
:1006E0005F920E94AC018093C2008091C2000FB65D
:1006F000F894DEBF0FBECDBF87702091C30082305B
:1007000009F497C0843009F489C0813009F09CC095
:100710008091C20090E0887F9F938F931F922F93C8
:100720009F928F920E94F1010F900F900F900F9067
:100730000F900F903FEF81EE94E031508040904059
:10074000E1F700C000001F9224E02F931F924F9208
:100750005F920E94AC013FEF81EE94E03150804007
:100760009040E1F700C000001F9280E48F931F9239
:100770004F925F920E94AC012FEF31EE84E0215046
:1007800030408040E1F700C000001F9288E08F9366
:100790001F924F925F920E94AC019FEF21EE34E0D6
:1007A000915020403040E1F700C000001F9280E8E7
:1007B0008F931F924F925F920E94AC018FEF93EC48
:1007C00029E0815090402040E1F700C000000FB6C2
:1007D000F894DEBF0FBECDBFF0CE8091C20090E096
:1007E000887F9F938F931F922F93DF92CF9217CF83
:1007F0008091C20090E0887F9F938F931F922F93E8
:10080000FF92EF920CCF1F922F93BF92AF920E9454
:10081000F1010F900F900F900F9009CF8091C200BF
:1008200090E0887F9F938F931F922F93DF92CF92B8
:1008300079CF8091C20090E0887F9F938F931F9221
:100840002F93FF92EF926ECF1F922F93BF92AF9292
:100850000E94F1010F900F900F900F906BCFAEE0C0
:10086000B0E0E5E3F4E00C94E7068C01FA0186E0E1
:100870008C831A83098377FF02C060E070E86150BF
:1008800071097E836D83A901BF01CE0101960E948B
:100890005B044D815E8157FD0AC02F813885421768
:1008A00053070CF49A01020F131FF80110822E96C1
:1008B000E4E00C940307ABE0B0E0E1E6F4E00C9474
:1008C000D9067C013B018A01FC01178216828381D3
:1008D00081FFC8C1CE0101965C01F7019381F3014C
:1008E00093FD859193FF81913F01882309F453C1C2
:1008F000853239F493FD859193FF81913F018532D3
:1009000029F4B70190E00E944B06E7CF912C212CEF
:10091000312CFFE1F31538F08B3211F190F4803275
:1009200009F1833229F137FC3CC020ED280F2A3031
:1009300050F536FE20C08AE0989E200D1124922E9C
:1009400006C08D3291F0803371F7689430F8F3016E
:1009500093FD859193FF81913F018111DACF21C0F1
:10096000689431F8689432F8F2CF689433F8EFCF96
:10097000689434F8ECCFEAE02E9E200D1124222E4C
:10098000689435F8E4CF8E3229F436FC04C16894BB
:1009900036F8DDCF8C3619F4689437F8D8CF88361E
:1009A000B1F2982F9F7D95549330E0F08336A1F1FA
:1009B0008337C1F1833509F063C02801F2E04F0E9F
:1009C000511CF801C080D180692D70E036FC02C056
:1009D0006FEF7FEFC6010E9435064C01689437F82F
:1009E00082010AC00C5F1F4FFFE3F98388248394C0
:1009F000912C6501E89437F833FE2DC0522C8114F8
:100A0000910471F5552009F468CFB70180E290E0B8
:100A10000E944B065A94F6CFF801808189830E5FBD
:100A20001F4FE4CF2801F2E04F0E511CF801C080A7
:100A3000D180692D70E036FC02C06FEF7FEFC601F8
:100A40000E9440064C018201D5CFB70180E290E0C0
:100A50000E944B062A942814190409F0B0F7CECF4F
:100A6000F60137FC859137FE81916F01B70190E067
:100A70000E944B0651105A94F1E08F1A9108BFCF93
:100A8000843619F0893609F077C0F80137FE6BC05B
:100A900060817181828193810C5F1F4FF32DFF76FE
:100AA0003F2E97FF09C090958095709561957F4F77
:100AB0008F4F9F4F689437F82AE030E0A5010E94DD
:100AC0007B06C82ECA188C2C432C36FE0CC0E8942A
:100AD00040F8C91440F434FE05C032FC03C0F32DC5
:100AE000FE7E4F2E892C44FE95C0FE01EC0DF11DBB
:100AF0008081803309F087C0242D297E422E842DE9
:100B00008870582E43FC95C040FE8FC09C2C8214E8
:100B100018F42C0C922C981844FE91C0B70180E375
:100B200090E00E944B0642FE09C088E790E041FE3B
:100B300002C088E590E0B7010E944B06C91408F492
:100B40008AC0CA94D12C9FEFC91AD90ACA0CDB1CDF
:100B5000F60182916F01B70190E00E944B06AC1440
:100B6000BD04B1F74FCF60817181072E000C880B57
:100B7000990B0E5F1F4F92CFD32CE894D4F82AE044
:100B800030E0853739F1232D297FD22E8F3601F1C0
:100B900048F48835A9F0F701868197812B96E2E128
:100BA0000C94F506803749F08837A9F7D4FE02C0C7
:100BB0006894D2F820E130E00DC06894D4F8F6CF04
:100BC00034FE03C0822F8660D82E20E132E002C0BE
:100BD00028E030E0F801D7FE0FC06081718182818A
:100BE00093810C5F1F4FA5010E947B06C82ECA1877
:100BF0003D2CE89437F867CF6081718190E080E008
:100C00000E5F1F4FF0CF42FC02C0839478CF8394D5
:100C1000839475CF842D867809F471CFF6CFB70110
:100C200080E290E00E944B0683948214C0F3512C22
:100C300073CF522C5818821408F46ECFF8CF842D3D
:100C4000867809F47BCF8BE241FE80E247FC8DE29F
:100C5000B70190E071CFB70180E390E00E944B06AE
:100C60009A946CCF8FEF9FEF99CFFC010590615064
:100C700070400110D8F7809590958E0F9F1F0895B2
:100C8000FC016150704001900110D8F7809590955B
:100C90008E0F9F1F08950F931F93CF93DF93182FED
:100CA000092FEB018B8181FD09C01FEF0FEF812F11
:100CB000902FDF91CF911F910F91089582FF14C063
:100CC0002E813F818C819D81281739073CF4E88172
:100CD000F981CF0101969983888310838E819F814A
:100CE00001969F838E83E3CFE885F985812F09954F
:100CF000892BA1F3DACFFA01AA27283051F120314C
:100D000081F1E8946F936E7F6E5F7F4F8F4F9F4F9F
:100D1000AF4FB1E03ED0B4E03CD0670F781F891FE1
:100D20009A1FA11D680F791F8A1F911DA11D6A0FAF
:100D3000711D811D911DA11D20D009F468943F9162
:100D40002AE0269F11243019305D3193DEF6CF0161
:100D50000895462F4770405D4193B3E00FD0C9F727
:100D6000F6CF462F4F70405D4A3318F0495D31FD94
:100D70004052419302D0A9F7EACFB4E0A6959795E7
:100D8000879577956795BA95C9F7009761057105BD
:100D900008959B01AC010A2E069457954795379507
:100DA0002795BA95C9F7620F731F841F951FA01D61
:100DB00008952F923F924F925F926F927F928F92FF
:100DC0009F92AF92BF92CF92DF92EF92FF920F93DA
:100DD0001F93CF93DF93CDB7DEB7CA1BDB0B0FB6E4
:100DE000F894DEBF0FBECDBF09942A8839884888A1
:100DF0005F846E847D848C849B84AA84B984C88437
:100E0000DF80EE80FD800C811B81AA81B981CE0F2D
:100E1000D11D0FB6F894DEBF0FBECDBFED01089512
:040E2000F894FFCF74
:100E240038007800B800F80035017501B501F50106
:100E340001000400100040000102040800102040DA
:100E44008000204C25643A6F6B3A253258200020EC
:100E54004C25643A74696D656F75743A253258206F
:100E640000204C25643A6572726F723A253258201C
:100E740000204C25643A756E6B6E6F776E25325880
:020E840020004C
:00000001FF
