:100000000C942A000C9447000C9447000C94470071
:100010000C9447000C9447000C9447000C94470044
:100020000C9447000C9447000C9447000C94470034
:100030000C9447000C9447000C9447000C94470024
:100040000C9447000C9447000C9447000C946400F7
:100050000C94470011241FBECFE5D8E0DEBFCDBF12
:1000600010E0A0E6B0E0EEECF1E002C005900D92E9
:10007000A836B107D9F720E0A8E6B0E001C01D928C
:10008000AD36B207E1F70E949F000C94E5000C9496
:1000900000008823C1F0282F2F7090916800292B31
:1000A00090E08095909534E0959587953A95E1F7A5
:1000B0008223809368008BB3807F8BBB8BB390913E
:1000C0006800892B8BBB08951F920F920FB60F9279
:1000D00011242F933F934F935F936F937F938F934D
:1000E0009F93AF93BF93EF93FF9385EC86BF81B14E
:1000F000887F803839F0883AE1F0811109C016BE56
:1001000010B806C083B1E0916B00F0916C000995C6
:10011000FF91EF91BF91AF919F918F917F916F91DF
:100120005F914F913F912F910F900FBE0F901F90B5
:100130001895E0916900F0916A000995E9CFCF9395
:10014000DF93CDB7DEB728970FB6F894DEBF0FBEAA
:10015000CDBF88E0E0E6F0E0DE01119601900D925F
:100160008A95E1F7FE01319680E0219131912430AA
:10017000310519F08F5F8430C1F791B19C7F91B93F
:1001800091B1892B81B98CE080B981B1877081B937
:1001900086E082B986B78E7F86BF81B1887F21F0E5
:1001A00081B1887F09F081B189E490E090936C007F
:1001B00080936B0010926A0010926900789485EC2D
:0E01C00086BF8AB38F608ABBFFCFF894FFCF53
:0801CE000100040010004000D4
:00000001FF
